:100000000207C0008F828E83E0540100000070F868
:100010002278FFE4F6D8FD02081EBB010689828A19
:1000200083E0225002E722BBFE02E32289828A8318
:10003000E49322BB010689828A83F0225002F722D0
:10004000BBFE01F322C2D5EC30E709B2D5E4C39D73
:10005000FDE49CFCEE30E715B2D5E4C39FFFE49EBF
:10006000FE1202F2C3E49DFDE49CFC80031202F246
:1000700030D507C3E49FFFE49EFE22C5F0F8A3E05D
:1000800028F0C5F0F8E582158270021583E038F09B
:1000900022EF2BFFEE3AFEED39FDEC38FC22E88F23
:1000A000F0A4CC8BF0A42CFCE98EF0A42CFC8AF0FC
:1000B000EDA42CFCEA8EF0A4CDA8F08BF0A42DCCFE
:1000C0003825F0FDE98FF0A42CCD35F0FCEB8EF057
:1000D000A4FEA9F0EB8FF0A4CFC5F02ECD39FEE43D
:1000E0003CFCEAA42DCE35F0FDE43CFC2275F00882
:1000F000758200EF2FFFEE33FECD33CDCC33CCC570
:100100008233C5829BED9AEC99E58298400CF5828A
:10011000EE9BFEED9AFDEC99FC0FD5F0D6E4CEFBFC
:10012000E4CDFAE4CCF9A88222B800C1B90059BAEA
:10013000002DEC8BF084CFCECDFCE5F0CBF9781818
:10014000EF2FFFEE33FEED33FDEC33FCEB33FB1012
:10015000D703994004EB99FB0FD8E5E4F9FA22782C
:1001600018EF2FFFEE33FEED33FDEC33FCC933C93E
:1001700010D7059BE99A4007EC9BFCE99AF90FD848
:10018000E0E4C9FAE4CCFB2275F010EF2FFFEE3368
:10019000FEED33FDCC33CCC833C810D7079BEC9AA7
:1001A000E899400AED9BFDEC9AFCE899F80FD5F030
:1001B000DAE4CDFBE4CCFAE4C8F922EF4BFFEE4AD7
:1001C000FEED49FDEC48FC22EB9FF5F0EA9E42F083
:1001D000E99D42F0E89C45F022E8600FECC313FC77
:1001E000ED13FDEE13FEEF13FFD8F122E8600FEFE1
:1001F000C333FFEE33FEED33FDEC33FCD8F122BB0D
:10020000010789828A830202395005E9F80203470F
:10021000BBFE05E9F802035389828A8302035FBBB0
:10022000010789828A830202515005E9F802036FAF
:10023000BBFE05E9F802037B22E0FCA3E0FDA3E09E
:10024000FEA3E0FF22E0F8A3E0F9A3E0FAA3E0FBBD
:1002500022ECF0A3EDF0A3EEF0A3EFF022E0FBA37D
:10026000E0FAA3E0F922EBF0A3EAF0A3E9F022E43C
:1002700093FB740193FA740293F922D083D082F82D
:10028000E4937012740193700DA3A393F874019317
:10029000F5828883E4737402936860EFA3A3A3805C
:1002A000DFE50C2582F582E50B3583F583B50B047C
:1002B00085820C2210AF0685820CF50B2285820CFC
:1002C000F50BD2AF22EC8EF0A4CCC5F0CCCDF8EF7C
:1002D000A4CEC5F02DFDE43CFCE8A42EC8C5F03D3D
:1002E000FDE43CFCEFA4FFE5F028FEE43DFDE43C2A
:1002F000FC22BC000BBE0029EF8DF084FFADF02284
:10030000E4CCF875F008EF2FFFEE33FEEC33FCEE93
:100310009DEC984005FCEE9DFE0FD5F0E9E4CEFD86
:1003200022EDF8F5F0EE8420D21CFEADF075F00859
:10033000EF2FFFED33FD4007985006D5F0F222C3B2
:1003400098FD0FD5F0EA22E6FC08E6FD08E6FE0877
:10035000E6FF22E2FC08E2FD08E2FE08E2FF22E4FA
:1003600093FC740193FD740293FE740393FF22ECDB
:10037000F608EDF608EEF608EFF622ECF208EDF2DC
:1003800008EEF208EFF2229000437401F09000446E
:100390007401F0900045E4F0900046E4F0120D95F1
:1003A0007BFF7A0D79FD120BC2900047E4F0A3E4C5
:1003B000F0900049E4F0A3E4F07F01120C75900086
:1003C00045E0FF900043E0FEEE540FFD120AD47F9B
:1003D00000120DCB900045E0FF900043E0FEEE04DC
:1003E000FEEE540FFD120AD47F01120DCB90004592
:1003F000E0FF900043E0FEEE2402FEEE540FFD12FB
:100400000AD47F02120DCB900045E0FF900043E03C
:10041000FEEE2403FEEE540FFD120AD47F03120DEC
:10042000CB900046E0FF900044E0FEEE2404FEEE98
:10043000540FFD120AD47F04120DCB900046E0FF4A
:10044000900044E0FEEE2405FEEE540FFD120AD4A7
:100450007F05120DCB900046E0FF900044E0FEEED9
:100460002406FEEE540FFD120AD47F06120DCB9027
:100470000046E0FF900044E0FEEE2407FEEE540F3D
:10048000FD120AD47F07120DCB7FF47E017D007C24
:1004900000120A13900043E014F0900044E004F0CE
:1004A000900047E0FEA3E0FF7C007D08120045902D
:1004B0000045EFF0900047E0FEA3E0FF7C007D08E0
:1004C000120045EF04FF900046EFF0900047E0FE79
:1004D000A3E0FFEF64104E7010900047E4F0A3E437
:1004E000F0900049E4F0A3E4F0900047E0FEA3E0C0
:1004F000FFD3EF9408EE648094804005900046E4BA
:10050000F0900047E475F00112007B900049E4751B
:10051000F00112007B0203B9227F947E017D007CF2
:1005200000900052120251905120E0FFEF5480FFE2
:10053000EFF0905122E0FFEF54F0FF900051EFF008
:10054000900051E0FFEF440FFF905122EFF09051E7
:1005500023E0FFEF54F0FF900051EFF0900051E0E6
:10056000FF905123EFF0905124E0FFEF54F0FF9003
:100570000051EFF0900051E0FF905124EFF09051C6
:1005800020E0FFEF54DFFFEFF0905120E0FFEF4459
:1005900040FFEFF07F007E00120D3C905120E0FF05
:1005A000EF4410FFEFF07F017E00120D3C905121CF
:1005B000E0FF900051EFF0905120E0FFEF54EFFF8B
:1005C000EFF07F007E00120D3C900051E0FFEF54F1
:1005D00008FF900051EFF0905120E0FFEF4410FF32
:1005E000EFF07F017E00120D3C905120E0FFEF54B0
:1005F000EFFFEFF0900051E0FFEF70077F0A7E0001
:10060000120D3C9000521202397BFF7AFF79FF787D
:10061000FF120091900052120251900051E0FFEF42
:100620006012900052120239D3EF9400EE94004011
:1006300003020594905120E0FFEF54BFFFEFF090CC
:100640005120E0FFEF5480FFEFF0905122E0FFEFE8
:1006500054F0FFEFF0905123E0FFEF54F0FF9000D3
:1006600051EFF0900051E0FFEF440FFF905123EF66
:10067000F0905124E0FFEF54F0FF900051EFF09024
:100680000051E0FFEF440FFF905124EFF0227B0078
:100690007A4679E8120DE5EF4405FD7B007A46794C
:1006A000E8120DF1750A00E50AC39409503AAF0A41
:1006B000EF75F005A4243DF582E4340EF583AF8296
:1006C000AE838E088F09AE08AF098F828E83120227
:1006D0006FAE08AF098F828E83740393FC7404930A
:1006E000FD120CDF050A80BF7B017A507903120DE1
:1006F000E5EF4402FD7B017A507903120DF17B0195
:100700007A507913120DE5EF4402FD7B017A50799E
:1007100013120DF17B087A007900C003C002C001FA
:100720007B007A517912900048120266D001D00203
:10073000D0037F087E00120CAB7B087A007908C0DA
:1007400003C002C0017B007A517922900048120256
:1007500066D001D002D0037F087E00120CAB90431C
:1007600022E0FFEF4408FF904322EFF09046ECE0D8
:10077000FFEFC394055006904689743AF090480004
:100780007431F01208AD90480074B1F0120C097B7E
:10079000007A4379A0C003C002C0017B007A43798C
:1007A000B0900048120266D001D002D0037F0E7EC6
:1007B00000120CAB9043B0E0FFEF54FDFFEFF022CE
:1007C00075930078007583467582E8E04401F00077
:1007D0009046ECE0F99046FAE0FAB903225420B4CE
:1007E0000012B8001AEA901FFFF07401901FFEF08B
:1007F0009046F6F0901FFEE06005901FFFE0FA9033
:10080000480074C0F075810C90000078007920E4F5
:10081000F0A3D8FCD9FAEA900060F0020011750B41
:100820001F750CFD120B2B12068E0208680203873F
:10083000E493A3F8E493A34003F68001F208DFF405
:100840008029E493A3F85407240CC8C333C4540F7D
:100850004420C8834004F456800146F6DFE4800B50
:100860000102040810204080900D69E47E0193602D
:10087000BCA3FF543F30E509541FFEE493A360017D
:100880000ECF54C025E060A840B8E493A3FAE493E7
:10089000A3F8E493A3C8C582C8CAC583CAF0A3C895
:1008A000C582C8CAC583CADFE9DEE780BE904300BF
:1008B0007402F09040007408F09042007403F07BE2
:1008C0000C7A017908120DE59046A1EFF07B007AD1
:1008D0004279227D087C00120DBC7B007A4279208F
:1008E0007D517C12120DBC900047E4F07F197E0010
:1008F0007D007C00900043120251900043120239A7
:10090000D3EF9400EE9400404E900047E0FFEF6478
:10091000036044904225E0FFEF5401FF7E00900009
:1009200047E0FEEE25E0FEEE4FFFEF5403FF9000A0
:1009300047EFF07FE07E017D007C00120D0090000B
:10094000431202397BFF7AFF79FF78FF1200919002
:10095000004312025180A3900043120239EF4E70FF
:10096000057F03120DAA7B007A4079047D007C018B
:10097000120DBC9040047407F0904006E4F09040E3
:10098000087448F0904004E4F09040017402F022B2
:100990007F287E007D007C00120A137F03120B79F2
:1009A0007F057E007D007C00120A137F03120B7905
:1009B0007F0F7E007D007C00120A137F03120B79EB
:1009C0007F017E007D007C00120A137F02120B79EA
:1009D0007F057E007D007C00120A137F06120C75D5
:1009E0007F0E120C757F2C120C757F08120C757F10
:1009F00001120C757F0C120C757F03120C757F05AC
:100A00007E007D007C00120A137BFF7A0D79FD12B7
:100A10000BC22290FFFC1202A1120251850B8385AA
:100A20000C82120239D3EF9400EE9480402F900094
:100A300061120239120D00850B83850C82C083C0C0
:100A400082120239EF2400FFEE3480FEED34FFFD08
:100A5000EC34FFFCD082D08312025180BF9000574B
:100A6000120239850B83850C8212024512009E12F8
:100A70000D009000041202A122900051EFF090515D
:100A800020E0FFEF4420FFEFF0905120E0FFEF5413
:100A9000BFFFEFF07F007E00120D3C905120E0FF81
:100AA000EF54F0FFEFF0905120C083C082E0FF9040
:100AB0000051E0FEEE4410FEEF4EFFD082D083EFF7
:100AC000F07F017E00120D3C905120E0FFEF54EFCB
:100AD000FFEFF02290004BEFF090004CEDF0900013
:100AE0004BE0FFEF12027B0AF7000B04010B11022F
:100AF0000B1E0300000B2A90004CE0FFEF2480FF48
:100B0000120C752290004CE0FFEF24C0FF120C7510
:100B10002290004CE0FFEF2494FF120C752290000D
:100B20004CE0FFEF24D4FF120C7522900043E4F058
:100B3000900043E0FFEFD3941F503D900043E0FF4F
:100B40007E02EF8EF0A4FFAEF0EF2400FFEE3444FF
:100B5000FEAA06A9077B01C003C002C0017BFF7A81
:100B60000C79F8AC02AD01D001D002D003120DBE59
:100B7000900043E004F080B822900051EFF09051D3
:100B800020E0FFEF549FFFEFF0905120E0FFEF5483
:100B9000F0FFEFF0905120C083C082E0FF90005141
:100BA000E0FEEE4410FEEF4EFFD082D083EFF07FE8
:100BB000017E00120D3C905120E0FFEF54EFFFEF5B
:100BC000F02290004B1202661205197F40120C753C
:100BD00090004EE4F090004EE0FFEFC394405020B0
:100BE00090004B12025D90004EE0FFE92FF9E43ACD
:100BF000FA12001AFF120C3F90004EE004F080D56C
:100C00001205197F80120C75227B0C7A0179CF12A4
:100C10000DE5900043EFF0900043E0FFEF5407FF35
:100C200090586EEFF0900043E0FFEFC4540FFFEFD9
:100C3000540FFF90586FEFF09058767444F0229064
:100C4000004FEFF012051990004FE0FFEFC4540F72
:100C5000FF900050EFF0900050E0FF120A799000F2
:100C60004FE0FFEF540FFF900050EFF0900050E086
:100C7000FF120A792290004FEFF012051990004FF1
:100C8000E0FFEFC4540FFF900050EFF0900050E0F1
:100C9000FF120B7990004FE0FFEF540FFF900050D0
:100CA000EFF0900050E0FF120B7922758600EF4EB6
:100CB0006027EF60010E759300900048E0F595A362
:100CC000E0F585A3E0F5848B938A838982E0A30510
:100CD00086F0A31586DFF6DEF4E4F593F59522ECB5
:100CE0004D6011ED60010C8B938A838982E4F0A33F
:0B0CF000DDFCDCFA7593002280FE3270
:100D0000EC4D4E700D78FCEF24E950032840FD2295
:100D100000007BF178DA0000EF28FF78FFEE38FE64
:100D2000ED38FDEC38FC50E7EF2BFFEE38FEED38E8
:0B0D3000FDEC38FC40F2220502030439
:100D3C00EEFA90005BE0F88FF0A4FFAEF0E88AF0DA
:100D4C00A42EFEE5F03400FDEF24C9FF78FFEE3849
:100D5C00FEED38FDE438FC5003020D002244005C2B
:100D6C00016E360044005700005DC041005B184422
:100D7C0000612EE0000041006B0041006A0043005E
:100D8C006500000041006C000090006AE0FFEF700D
:100D9C000912099090006A7401F0120DD92290008A
:100DAC0048EFF0900048E0FF900048EFF080FE2202
:100DBC008B938A838982EDF0A3ECF07593002290DB
:100DCC00004BEFF090004BE0FF120C3F227F0C1217
:100DDC000C7590006B7401F0228B938A838982E0EE
:100DEC00759300FF228B938A838982EDF0759300B3
:100DFC002200010E10111E0100001F0C0C001F0020
:100E0C0000001F0606001F0000001E0707110F1030
:100E1C0000000C1F0E1B151B0E00031F070F170FD6
:100E2C00000C17031E1D1C1C000000001E1B151BB4
:100E3C000E005100001000513000400051C0001055
:100E4C000051F00010010000100001140008000116
:0E0E5C0040000A00014C00020001500000207E
:00000001FF
